{
  "contractName": "Decentragram",
  "abi": [
    {
      "anonymous": false,
      "inputs": [
        {
          "indexed": false,
          "internalType": "uint256",
          "name": "id",
          "type": "uint256"
        },
        {
          "indexed": false,
          "internalType": "string",
          "name": "hash",
          "type": "string"
        },
        {
          "indexed": false,
          "internalType": "string",
          "name": "description",
          "type": "string"
        },
        {
          "indexed": false,
          "internalType": "uint256",
          "name": "tipAmount",
          "type": "uint256"
        },
        {
          "indexed": false,
          "internalType": "address payable",
          "name": "author",
          "type": "address"
        }
      ],
      "name": "ImageCreated",
      "type": "event"
    },
    {
      "anonymous": false,
      "inputs": [
        {
          "indexed": false,
          "internalType": "uint256",
          "name": "id",
          "type": "uint256"
        },
        {
          "indexed": false,
          "internalType": "string",
          "name": "hash",
          "type": "string"
        },
        {
          "indexed": false,
          "internalType": "string",
          "name": "description",
          "type": "string"
        },
        {
          "indexed": false,
          "internalType": "uint256",
          "name": "tipAmount",
          "type": "uint256"
        },
        {
          "indexed": false,
          "internalType": "address payable",
          "name": "author",
          "type": "address"
        }
      ],
      "name": "ImageTipped",
      "type": "event"
    },
    {
      "inputs": [],
      "name": "imageCount",
      "outputs": [
        {
          "internalType": "uint256",
          "name": "",
          "type": "uint256"
        }
      ],
      "stateMutability": "view",
      "type": "function",
      "constant": true
    },
    {
      "inputs": [
        {
          "internalType": "uint256",
          "name": "",
          "type": "uint256"
        }
      ],
      "name": "images",
      "outputs": [
        {
          "internalType": "uint256",
          "name": "id",
          "type": "uint256"
        },
        {
          "internalType": "string",
          "name": "hash",
          "type": "string"
        },
        {
          "internalType": "string",
          "name": "description",
          "type": "string"
        },
        {
          "internalType": "uint256",
          "name": "tipAmount",
          "type": "uint256"
        },
        {
          "internalType": "address payable",
          "name": "author",
          "type": "address"
        }
      ],
      "stateMutability": "view",
      "type": "function",
      "constant": true
    },
    {
      "inputs": [],
      "name": "name",
      "outputs": [
        {
          "internalType": "string",
          "name": "",
          "type": "string"
        }
      ],
      "stateMutability": "view",
      "type": "function",
      "constant": true
    },
    {
      "inputs": [
        {
          "internalType": "string",
          "name": "_imgHash",
          "type": "string"
        },
        {
          "internalType": "string",
          "name": "_description",
          "type": "string"
        }
      ],
      "name": "uploadImage",
      "outputs": [],
      "stateMutability": "nonpayable",
      "type": "function"
    },
    {
      "inputs": [
        {
          "internalType": "uint256",
          "name": "_id",
          "type": "uint256"
        }
      ],
      "name": "tipImageOwner",
      "outputs": [],
      "stateMutability": "payable",
      "type": "function",
      "payable": true
    }
  ],
  "bytecode": "0x60806040526040518060400160405280600c81526020017f446563656e7472616772616d000000000000000000000000000000000000000081525060009080519060200190620000519291906200006b565b5060006001553480156200006457600080fd5b5062000180565b82805462000079906200014a565b90600052602060002090601f0160209004810192826200009d5760008555620000e9565b82601f10620000b857805160ff1916838001178555620000e9565b82800160010185558215620000e9579182015b82811115620000e8578251825591602001919060010190620000cb565b5b509050620000f89190620000fc565b5090565b5b8082111562000117576000816000905550600101620000fd565b5090565b7f4e487b7100000000000000000000000000000000000000000000000000000000600052602260045260246000fd5b600060028204905060018216806200016357607f821691505b602082108114156200017a57620001796200011b565b5b50919050565b610e4f80620001906000396000f3fe60806040526004361061004a5760003560e01c806306fdde031461004f578063848564821461007a5780638567ade8146100bb57806392053b63146100d7578063a91b831414610102575b600080fd5b34801561005b57600080fd5b5061006461012b565b6040516100719190610932565b60405180910390f35b34801561008657600080fd5b506100a1600480360381019061009c919061099e565b6101b9565b6040516100b2959493929190610a1b565b60405180910390f35b6100d560048036038101906100d0919061099e565b61031f565b005b3480156100e357600080fd5b506100ec61064f565b6040516100f99190610a7c565b60405180910390f35b34801561010e57600080fd5b5061012960048036038101906101249190610bcc565b610655565b005b6000805461013890610c73565b80601f016020809104026020016040519081016040528092919081815260200182805461016490610c73565b80156101b15780601f10610186576101008083540402835291602001916101b1565b820191906000526020600020905b81548152906001019060200180831161019457829003601f168201915b505050505081565b60026020528060005260406000206000915090508060000154908060010180546101e290610c73565b80601f016020809104026020016040519081016040528092919081815260200182805461020e90610c73565b801561025b5780601f106102305761010080835404028352916020019161025b565b820191906000526020600020905b81548152906001019060200180831161023e57829003601f168201915b50505050509080600201805461027090610c73565b80601f016020809104026020016040519081016040528092919081815260200182805461029c90610c73565b80156102e95780601f106102be576101008083540402835291602001916102e9565b820191906000526020600020905b8154815290600101906020018083116102cc57829003601f168201915b5050505050908060030154908060040160009054906101000a900473ffffffffffffffffffffffffffffffffffffffff16905085565b60008111801561033157506001548111155b61033a57600080fd5b6000600260008381526020019081526020016000206040518060a00160405290816000820154815260200160018201805461037490610c73565b80601f01602080910402602001604051908101604052809291908181526020018280546103a090610c73565b80156103ed5780601f106103c2576101008083540402835291602001916103ed565b820191906000526020600020905b8154815290600101906020018083116103d057829003601f168201915b5050505050815260200160028201805461040690610c73565b80601f016020809104026020016040519081016040528092919081815260200182805461043290610c73565b801561047f5780601f106104545761010080835404028352916020019161047f565b820191906000526020600020905b81548152906001019060200180831161046257829003601f168201915b50505050508152602001600382015481526020016004820160009054906101000a900473ffffffffffffffffffffffffffffffffffffffff1673ffffffffffffffffffffffffffffffffffffffff1673ffffffffffffffffffffffffffffffffffffffff168152505090506000816080015190508073ffffffffffffffffffffffffffffffffffffffff166108fc349081150290604051600060405180830381858888f19350505050158015610539573d6000803e3d6000fd5b5034826060015161054a9190610cd4565b826060018181525050816002600085815260200190815260200160002060008201518160000155602082015181600101908051906020019061058d9291906107f6565b5060408201518160020190805190602001906105aa9291906107f6565b506060820151816003015560808201518160040160006101000a81548173ffffffffffffffffffffffffffffffffffffffff021916908373ffffffffffffffffffffffffffffffffffffffff1602179055509050507f1be5317bca8d3f70dc1efe89958be71bff36cdca33fc00a6423e25eb2f1d492f8383602001518460400151856060015185604051610642959493929190610a1b565b60405180910390a1505050565b60015481565b600082511161066357600080fd5b600081511161067157600080fd5b600073ffffffffffffffffffffffffffffffffffffffff163373ffffffffffffffffffffffffffffffffffffffff1614156106ab57600080fd5b600160008154809291906106be90610d2a565b91905055506040518060a001604052806001548152602001838152602001828152602001600081526020013373ffffffffffffffffffffffffffffffffffffffff1681525060026000600154815260200190815260200160002060008201518160000155602082015181600101908051906020019061073e9291906107f6565b50604082015181600201908051906020019061075b9291906107f6565b506060820151816003015560808201518160040160006101000a81548173ffffffffffffffffffffffffffffffffffffffff021916908373ffffffffffffffffffffffffffffffffffffffff1602179055509050507fc1d8dfa99b3f84f95d3f0bc4a768addeb97b83b20aef7f9cb6729e126bafd2f960015483836000336040516107ea959493929190610db8565b60405180910390a15050565b82805461080290610c73565b90600052602060002090601f016020900481019282610824576000855561086b565b82601f1061083d57805160ff191683800117855561086b565b8280016001018555821561086b579182015b8281111561086a57825182559160200191906001019061084f565b5b509050610878919061087c565b5090565b5b8082111561089557600081600090555060010161087d565b5090565b600081519050919050565b600082825260208201905092915050565b60005b838110156108d35780820151818401526020810190506108b8565b838111156108e2576000848401525b50505050565b6000601f19601f8301169050919050565b600061090482610899565b61090e81856108a4565b935061091e8185602086016108b5565b610927816108e8565b840191505092915050565b6000602082019050818103600083015261094c81846108f9565b905092915050565b6000604051905090565b600080fd5b600080fd5b6000819050919050565b61097b81610968565b811461098657600080fd5b50565b60008135905061099881610972565b92915050565b6000602082840312156109b4576109b361095e565b5b60006109c284828501610989565b91505092915050565b6109d481610968565b82525050565b600073ffffffffffffffffffffffffffffffffffffffff82169050919050565b6000610a05826109da565b9050919050565b610a15816109fa565b82525050565b600060a082019050610a3060008301886109cb565b8181036020830152610a4281876108f9565b90508181036040830152610a5681866108f9565b9050610a6560608301856109cb565b610a726080830184610a0c565b9695505050505050565b6000602082019050610a9160008301846109cb565b92915050565b600080fd5b600080fd5b7f4e487b7100000000000000000000000000000000000000000000000000000000600052604160045260246000fd5b610ad9826108e8565b810181811067ffffffffffffffff82111715610af857610af7610aa1565b5b80604052505050565b6000610b0b610954565b9050610b178282610ad0565b919050565b600067ffffffffffffffff821115610b3757610b36610aa1565b5b610b40826108e8565b9050602081019050919050565b82818337600083830152505050565b6000610b6f610b6a84610b1c565b610b01565b905082815260208101848484011115610b8b57610b8a610a9c565b5b610b96848285610b4d565b509392505050565b600082601f830112610bb357610bb2610a97565b5b8135610bc3848260208601610b5c565b91505092915050565b60008060408385031215610be357610be261095e565b5b600083013567ffffffffffffffff811115610c0157610c00610963565b5b610c0d85828601610b9e565b925050602083013567ffffffffffffffff811115610c2e57610c2d610963565b5b610c3a85828601610b9e565b9150509250929050565b7f4e487b7100000000000000000000000000000000000000000000000000000000600052602260045260246000fd5b60006002820490506001821680610c8b57607f821691505b60208210811415610c9f57610c9e610c44565b5b50919050565b7f4e487b7100000000000000000000000000000000000000000000000000000000600052601160045260246000fd5b6000610cdf82610968565b9150610cea83610968565b9250827fffffffffffffffffffffffffffffffffffffffffffffffffffffffffffffffff03821115610d1f57610d1e610ca5565b5b828201905092915050565b6000610d3582610968565b91507fffffffffffffffffffffffffffffffffffffffffffffffffffffffffffffffff821415610d6857610d67610ca5565b5b600182019050919050565b6000819050919050565b6000819050919050565b6000610da2610d9d610d9884610d73565b610d7d565b610968565b9050919050565b610db281610d87565b82525050565b600060a082019050610dcd60008301886109cb565b8181036020830152610ddf81876108f9565b90508181036040830152610df381866108f9565b9050610e026060830185610da9565b610e0f6080830184610a0c565b969550505050505056fea26469706673582212208f4bf05cce5f0f610233c3a0bae53dc9f0464ca85b28a521f64fbcf04a28dfd764736f6c634300080b0033",
  "immutableReferences": {},
  "source": "//SPDX-License-Identifier: Apache-2.0\r\npragma solidity 0.8.11;\r\n\r\ncontract Decentragram {\r\n  string public name = \"Decentragram\";\r\n  \r\n  // Storing Images\r\n  uint public imageCount = 0;\r\n  mapping(uint => Image) public images;\r\n\r\n  struct Image {\r\n    uint id;\r\n    string hash;\r\n    string description;\r\n    uint tipAmount;\r\n    address payable author;\r\n  }\r\n\r\n  event ImageCreated(\r\n    uint id,\r\n    string hash,\r\n    string description,\r\n    uint tipAmount,\r\n    address payable author\r\n  );\r\n\r\n  event ImageTipped(\r\n    uint id,\r\n    string hash,\r\n    string description,\r\n    uint tipAmount,\r\n    address payable author\r\n  );\r\n\r\n  //Creating Images\r\n  function uploadImage(string memory _imgHash, string memory _description) public{\r\n    \r\n    //Make sure the image hash exists\r\n    require(bytes(_imgHash).length > 0);\r\n\r\n    //Description must be at least 1 character\r\n    require(bytes(_description).length > 0);\r\n\r\n    //Make sure uploader address exists\r\n    require(msg.sender != address(0));\r\n\r\n    //Increment Image ID;\r\n    imageCount++;\r\n\r\n    //Add images to contract\r\n    images[imageCount] = Image(imageCount,_imgHash, _description, 0, payable(msg.sender));\r\n\r\n    // Trigegr an event\r\n    emit ImageCreated(imageCount, _imgHash,_description,0,payable(msg.sender));\r\n  }\r\n\r\n  //Tip image owner\r\n  function tipImageOwner(uint _id) public payable{\r\n    //Make sure the id is valid \r\n    require(_id > 0 && _id <= imageCount);\r\n    //Fetch the image from storage\r\n    Image memory _image = images[_id];\r\n    //Image author\r\n    address payable _author = _image.author;\r\n    //Pay the author by sending them ether\r\n    payable (address(_author)).transfer(msg.value);\r\n    //Increment the tip amount\r\n    _image.tipAmount = _image.tipAmount + msg.value;\r\n    //Update the image\r\n    images[_id] = _image;\r\n  \r\n\r\n    // Trigger an event\r\n    emit ImageTipped(_id, _image.hash, _image.description, _image.tipAmount, _author);\r\n  }\r\n  \r\n\r\n}",
  "sourcePath": "C:\\Users\\91960\\decentragram\\src\\contracts\\Decentragram.sol",
  "compiler": {
    "name": "solc",
    "version": "0.8.11+commit.d7f03943.Emscripten.clang"
  },
  "schemaVersion": "3.4.4",
  "updatedAt": "2021-12-25T12:43:48.987Z",
  "networkType": "ethereum",
  "devdoc": {
    "kind": "dev",
    "methods": {},
    "version": 1
  },
  "userdoc": {
    "kind": "user",
    "methods": {},
    "version": 1
  }
}